:100000000C9476000C948A000C948A000C948A005C
:100010000C948A000C948A000C948A000C948A0038
:100020000C948A000C948A000C948A000C948A0028
:100030000C948A000C948A000C948A000C948A0018
:100040000C948A000C94B3000C948A000C948A00DF
:100050000C948A000C948A000C948A000C948A00F8
:100060000C948A000C948A000C948A000C948A00E8
:100070000C948A000C948A000C948A000C948A00D8
:100080000C948C000C948A000C948A000C948A00C6
:100090000C948A000C948A000C948A000C948A00B8
:1000A0000C948A000C948A000C948A000C948A00A8
:1000B0000C948A000C948A000C948A000C948A0098
:1000C0000C948A000C948A000C948A000C948A0088
:1000D0000C948A000C948A000C948A000C948A0078
:1000E0000C948A000C94B7010C94A90111241FBE32
:1000F000CFEFD1E2DEBFCDBF00E00CBF24E0A0E037
:10010000B2E001C01D92AC30B207E1F70E94C50118
:100110000C9426020C9400008F938FB78F939F93BB
:100120008091020290910302892B49F08091020292
:1001300090910302019790930302809302028091B1
:10014000070390910803009749F08091070390916D
:100150000803019790930803809307039F918F9161
:100160008FBF8F91189578940F920FB60F921F92B0
:100170002F923F924F925F926F927F928F929F92B7
:10018000AF92BF92CF92DF92EF92FF920F931F93A5
:100190002F933F934F935F936F937F938F939F938F
:1001A000AF93BF93CF93DF93EF93FF934DB75EB7BA
:1001B0002091000281E0820F213009F480E065E0A7
:1001C00071E02603F001279FF00D1124EF5FFD4F32
:1001D000548343838093000280910B048F5F80934C
:1001E0000B048B3F28F085B1805885B910920B0421
:1001F0004091000225E031E04203F001439FF00D01
:100200001124EF5FFD4F838194819EBF8DBFFF91CD
:10021000EF91DF91CF91BF91AF919F918F917F919E
:100220006F915F914F913F912F911F910F91FF908F
:10023000EF90DF90CF90BF90AF909F908F907F9086
:100240006F905F904F903F902F901F900F900FBE38
:100250000F9018954091000225E031E04203F00133
:10026000439FF00D1124EF5FFD4F80810895F894B6
:100270006091000245E051E06403F001659FF00DDC
:100280001124EF5FFD4F9283818378940895F89451
:100290004091000225E031E04203F001439FF00D60
:1002A0001124EF5FFD4F818192817894089545E09C
:1002B00051E0649F9001659F300D1124D901AF5F1B
:1002C000BD4F6C9312961C921E9211972B5F3C4F60
:1002D000FD01EC5FFE4F8083A90142505109149645
:1002E0005C934E93139721503109F9019083139633
:1002F000ED91FC911497CF01019714969C938E93E6
:10030000139710821396ED91FC911497CF010197EA
:1003100014969C938E93139710821396ED91FC91F3
:100320001497CF01019714969C938E9313978FB7D0
:1003300080838FE190E01396ED91FC9111979F01DE
:100340002150310911963C932E9310820197A1F709
:100350000895089AC1E082B18C2782B982E390E0C7
:100360000E9437010E944701892BE1F7F4CF099AD7
:10037000C2E082B18C2782B982E390E00E9437010B
:100380000E944701892BE1F7F4CF60E089EA91E010
:100390000E94570161E087EB91E00E945701E1E87C
:1003A000F0E080818A6080838FEC97E090938900F1
:1003B00080938800EFE6F0E0808182608083279A56
:1003C000E1E9F0E080818C60808380E792E09093A7
:1003D000990080939800E1E7F0E08081826080835B
:1003E0004091000225E031E04203F001439FF00D0F
:1003F0001124EF5FFD4F838194819EBF8DBFFF91DC
:10040000EF91DF91CF91BF91AF919F918F917F91AC
:100410006F915F914F913F912F911F910F91FF909D
:10042000EF90DF90CF90BF90AF909F908F907F9094
:100430006F905F904F903F902F901F900F900FBE46
:100440000F907894089580E090E00895F894FFCF9D
:00000001FF
