:100000000C9476000C9497000C9497000C94970035
:100010000C9497000C9497000C9497000C94970004
:100020000C9497000C9497000C9497000C949700F4
:100030000C9497000C9497000C9497000C949700E4
:100040000C9497000C94C0000C9497000C949700AB
:100050000C9497000C9497000C9497000C949700C4
:100060000C9497000C9497000C9497000C949700B4
:100070000C9497000C9497000C9497000C949700A4
:100080000C9499000C9497000C9497000C94970092
:100090000C9497000C9497000C9497000C94970084
:1000A0000C9497000C9497000C9497000C94970074
:1000B0000C9497000C9497000C9497000C94970064
:1000C0000C9497000C9497000C9497000C94970054
:1000D0000C9497000C9497000C9497000C94970044
:1000E0000C9497000C94FD010C94EF0111241FBE99
:1000F000CFEFD1E2DEBFCDBF00E00CBF12E0A0E049
:10010000B2E0EEEAF4E000E00BBF02C007900D920F
:10011000A230B107D9F724E0A2E0B2E001C01D92FD
:10012000AE30B207E1F70E940B020C9455020C941A
:1001300000008F938FB78F939F93809104029091CB
:100140000502892B49F080910402909105020197E4
:1001500090930502809304028091090390910A0311
:10016000009749F08091090390910A0301979093B9
:100170000A03809309039F918F918FBF8F911895E8
:1001800078940F920FB60F921F922F923F924F9238
:100190005F926F927F928F929F92AF92BF92CF9217
:1001A000DF92EF92FF920F931F932F933F934F9302
:1001B0005F936F937F938F939F93AF93BF93CF93EF
:1001C000DF93EF93FF934DB75EB72091020281E07A
:1001D000820F213009F480E065E071E02603F00130
:1001E000279FF00D1124ED5FFD4F548343838093CF
:1001F000020280910D048F5F80930D048B3F28F0E5
:1002000085B1805885B910920D044091020225E015
:1002100031E04203F001439FF00D1124ED5FFD4FEB
:10022000838194819EBF8DBFFF91EF91DF91CF912C
:10023000BF91AF919F918F917F916F915F914F91FE
:100240003F912F911F910F91FF90EF90DF90CF90F2
:10025000BF90AF909F908F907F906F905F904F90E6
:100260003F902F901F900F900FBE0F9018954091C8
:10027000020225E031E04203F001439FF00D11241A
:10028000ED5FFD4F80810895F8946091020245E092
:1002900051E06403F001659FF00D1124ED5FFD4F07
:1002A0009283818378940895F8944091020225E026
:1002B00031E04203F001439FF00D1124ED5FFD4F4B
:1002C000818192817894089545E051E0649F900186
:1002D000659F300D1124D901AD5FBD4F6C9312960F
:1002E0001C921E921197295F3C4FFD01EC5FFE4F5F
:1002F0008083A9014250510914965C934E93139741
:1003000021503109F90190831396ED91FC911497D6
:10031000CF01019714969C938E9313971082139696
:10032000ED91FC911497CF01019714969C938E93B5
:10033000139710821396ED91FC911497CF010197BA
:1003400014969C938E9313978FB780838FE190E0E0
:100350001396ED91FC9111979F012150310911964F
:100360003C932E9310820197A1F70895809100028B
:10037000823011F083E00895809181008A6080933B
:1003800081008FEC97E090938900809388008091A2
:100390006F00826080936F00279A81E0089583E068
:1003A00080930002089580910102823011F083E071
:1003B0000895809191008C608093910080E792E095
:1003C000909399008093980080917100826080934F
:1003D000710081E0089583E0809301020895089AF6
:1003E000C1E082B18C2782B982E390E00E9444018F
:1003F0000E945401892BE1F7F4CF099AC2E082B13F
:100400008C2782B982E390E00E9444010E9454014B
:10041000892BE1F7F4CF60E08FEE91E00E94640158
:1004200061E08DEF91E00E9464010E94B6018FEFC0
:100430000E94CF010E94D3018FEF0E94EB014091F7
:10044000020225E031E04203F001439FF00D112448
:10045000ED5FFD4F838194819EBF8DBFFF91EF9132
:10046000DF91CF91BF91AF919F918F917F916F91CC
:100470005F914F913F912F911F910F91FF90EF90BE
:10048000DF90CF90BF90AF909F908F907F906F90B4
:100490005F904F903F902F901F900F900FBE0F9046
:0E04A0007894089580E090E00895F894FFCFDE
:0204AE00020248
:00000001FF
